:020000040800F2
:1000000000000820390C0008B10B0008B30B0008F1
:10001000B50B0008B70B0008B90B00080000000082
:10002000000000000000000000000000A1360008F1
:10003000BB0B00080000000041370008A53700088E
:10004000890C0008890C0008890C0008890C00083C
:10005000890C0008890C0008890C0008890C00082C
:10006000890C0008890C0008890C0008890C00081C
:10007000890C0008890C0008890C0008890C00080C
:10008000890C0008890C0008890C0008890C0008FC
:10009000BD0B0008890C0008890C0008890C0008B9
:1000A000890C0008890C0008890C0008890C0008DC
:1000B000890C0008890C0008890C0008890C0008CC
:1000C000890C0008890C0008890C0008890C0008BC
:1000D000890C0008890C0008890C0008890C0008AC
:1000E000890C0008890C0008890C0008890C00089C
:1000F000890C0008890C0008890C0008890C00088C
:10010000890C0008890C0008890C0008890C00087B
:10011000890C0008890C0008CD0B0008890C000828
:10012000890C0008890C0008890C0008890C00085B
:10013000890C0008890C0008890C0008890C00084B
:10014000890C0008890C0008890C0008890C00083B
:10015000890C0008890C0008890C0008890C00082B
:10016000890C0008890C0008890C0008890C00081B
:10017000890C0008890C0008890C000800000000A8
:10018000890C0008890C0008890C0008890C0008FB
:10019000890C0008890C0008890C0008890C0008EB
:1001A000890C0008890C0008890C0008890C0008DB
:1001B000890C0008890C0008890C0008890C0008CB
:1001C000890C0008890C000800000000890C000858
:1001D000890C0008890C0008890C0008890C0008AB
:1001E000890C0008890C0008890C0008890C00089B
:0801F000890C0008890C0008CD
:1002000010B5054C237833B9044B13B10448AFF350
:1002100000800123237010BD500500200000000065
:100220000456000808B5034B1BB103490348AFF35C
:10023000008008BD0000000054050020045600089E
:1002400053B94AB9002908BF00281CBF4FF0FF313D
:100250004FF0FF3000F06AB9ADF1080C6DE904CE43
:1002600000F006F8DDF804E0DDE9022304B0704791
:100270002DE9F047089D0C46002B4ED194468C4545
:100280008646B2FA82F262D94AB1C2F120039140A5
:1002900020FA03F30CFA02FC194300FA02FE4FEABB
:1002A0001C471FFA8CF6B1FBF7F44FEA1E4307FB1D
:1002B000141143EA014304FB06F199420AD91CEBED
:1002C000030304F1FF3080F01281994240F20F8164
:1002D000023C6344591A1FFA8EF3B1FBF7F007FB97
:1002E000101143EA014300FB06F69E420AD91CEBBB
:1002F000030300F1FF3180F0FC809E4240F2F98060
:10030000634402389B1B40EA044000211DB1D340E6
:100310000022C5E90032BDE8F0878B4205D90DB156
:10032000C5E9000100210846F5E7B3FA83F1002989
:1003300046D1A34202D39042C0F0F080861A64EB0B
:1003400003030120002DE6D0C5E90063E3E7002A9E
:1003500040F09080A1EB0C044FEA1C481FFA8CF788
:100360000121B4FBF8F64FEA1E4308FB164443EAAA
:10037000044307FB06F0984208D91CEB030306F17F
:10038000FF3402D2984200F2CD8026461C1A1FFA92
:100390008EF3B4FBF8F008FB104443EA044300FB7F
:1003A00007F79F4208D91CEB030300F1FF3402D288
:1003B0009F4200F2B0802046DB1B40EA0640A5E7E2
:1003C000C1F120068B4022FA06F71F4320FA06FCF3
:1003D00004FA01F343EA0C03F44000FA01F8380C84
:1003E0004FEA1349B4FBF0FE1FFA87FC00FB1E44E2
:1003F00049EA04440EFB0CF9A14502FA01F20AD9BC
:100400003C190EF1FF3A80F08480A14540F28180D2
:10041000AEF1020E3C44A4EB09041FFA83F9B4FBCD
:10042000F0F300FB134449EA044403FB0CFCA4452D
:1004300007D93C1903F1FF3067D2A44565D9023BC7
:100440003C4443EA0E40A0FB0293A4EB0C049C4204
:10045000CE469C4651D34ED055B1B8EB0E0364EB5B
:100460000C0404FA06F6CB401E43CC40C5E90064F8
:10047000002150E7C2F1200320FA03F10CFA02FC3C
:1004800024FA03F394400C434FEA1C4800FA02FE9E
:100490001FFA8CF7B3FBF8F008FB1031230C43EA8A
:1004A000014300FB07F1994208D91CEB030300F15B
:1004B000FF362CD299422AD9023863445B1AA4B27F
:1004C000B3FBF8F108FB113344EA034401FB07F3E3
:1004D000A34208D91CEB040401F1FF3613D2A34256
:1004E00011D902396444E41A41EA004139E704466B
:1004F000F0E6084606E7C845AED2B9EB020E63EB5C
:10050000070C0138A8E73146EDE7034699E7304686
:10051000D4E7D6467FE7634402384DE706462346D4
:1005200008460FE7023E634430E700BF704700BF54
:100530002DE9F04F8DB000240794089409940A9493
:100540000B94534B1A6B42F004021A631A6B02F0BD
:1005500004020192019A1A6B42F080021A631A6B2C
:1005600002F080020292029A1A6B42F001021A63B0
:100570001A6B02F001020392039A1A6B42F0020214
:100580001A631A6B02F002020492049A1A6B42F088
:1005900008021A631A6B02F008020592059A1A6B98
:1005A00042F040021A631B6B03F040030693069B64
:1005B000DFF8E890224644F28101484601F0E2F873
:1005C000344D22464021284601F0DCF84FF4005B10
:1005D000CDF81CB04FF4881308930994DFF8C0A03D
:1005E00007A9504600F0CCFF322307934FF00208D2
:1005F000CDF82080099403270A970B260B9607A9AC
:10060000504600F0BDFF86230793CDF82080099463
:100610000A970B9607A9204800F0B2FF44F2810325
:1006200007934FF0010ACDF820A009940A9407A976
:10063000484600F0A5FFCDF81CB0CDF82080099405
:100640000A970B9607A9484600F09AFF40230793A4
:10065000CDF820A009940A9407A9284600F090FF3D
:10066000802307930894099407A9284600F088FF7F
:100670004FF420530793CDF8208009940A970B96E6
:1006800007A9284600F07CFF0DB0BDE8F08F00BF41
:1006900000380240001802400000024000040240FE
:1006A0000008024008B5094B00221A705A70012157
:1006B000074801F06DF8074B044A0749074800F066
:1006C00087FC642002F012FFF1E700BF6C050020F8
:1006D000000402407405002078050020240B00204F
:1006E00000B58BB001AB03AA002100F0FFFC10B1F4
:1006F0000BB05DF804FB9DF80C1001A804F050FD50
:10070000F6E7000008B50268034B9A4200D008BD26
:1007100000F0C6FAFBE700BF0010004072B6FEE72B
:1007200008B50B480B4B03604FF4E13343600023E3
:100730008360C36003610C2242618361C361036211
:10074000436202F02AFC00B908BDFFF7E7FF00BFD3
:100750009C0A00200048004008B50B484FF0A04319
:100760000360062343600222C260002303618261AA
:100770000122C26103624362C262036301F011F8A5
:1007800000B908BDFFF7CAFF9405002000B58BB083
:100790001648174B03600323436000238360C36044
:1007A0004FF4402202614FF44012426103764376D7
:1007B0008376C3760377437700F098FA98B90023DD
:1007C00000930193029303930122079204930593EC
:1007D00006930E23099308926946044800F02CFB07
:1007E0000BB05DF804FBFFF799FF00BF240B00205E
:1007F0000064004000B595B03422002107A804F041
:10080000F1FC00230293039304930593069301F0F4
:100810007BF8234B1A6C42F080521A641B6C03F075
:1008200080530093009B1F4B1A6842F440421A60A9
:100830001B6803F440430193019B012307934FF48A
:10084000A023089302230D934FF480020E920422FA
:100850000F92D8221092119309221292139307A893
:1008600001F098F8B0B901F057F8A8B90F23029336
:1008700002230393002304934FF4A05305934FF4F2
:1008800080530693072102A801F014FB30B915B07C
:100890005DF804FBFFF742FFFFF740FFFFF73EFF65
:1008A000003802400070004008B500F0EEF9FFF794
:1008B000A1FFFFF73DFEFFF733FFFFF74DFFFFF707
:1008C00065FF114C204600F055FB0221204600F048
:1008D000B2FC204600F0F1FB48B10C4B4FF4007223
:1008E0001A600022DA609A60082119611A7502F014
:1008F0004FFD074A0021074802F08CFD064B1860A7
:1009000002F064FDFEE700BF240B00207805002004
:1009100028560008A50600089005002000B583B001
:100920000D4B1A6C42F080521A641A6C02F080521D
:100930000092009A5A6C42F480425A645B6C03F451
:1009400080430193019B00220F216FF0010000F012
:10095000F9FD03B05DF804FB0038024000B589B032
:100960000023039304930593069307930268174BA0
:100970009A4202D009B05DF804FB03F5EA331A6C21
:1009800042F000721A641A6C02F000720192019A2D
:100990001A6B42F008021A631B6B03F00803029300
:1009A000029B0323039302220492069309230793D5
:1009B00003A9074800F0E4FD00220521142000F0FF
:1009C000C1FD142000F0CEFDD4E700BF006400405C
:1009D000000C024010B5ACB00446002127912891CC
:1009E00029912A912B91902203A804F0FBFB226805
:1009F000184B9A4201D02CB010BD4FF48073039372
:100A000003A801F051FB10BB134B1A6C42F4802277
:100A10001A641A6C02F480220192019A1A6B42F055
:100A200008021A631B6B03F008030293029B4FF446
:100A300040732793022328930023299303232A93A7
:100A400007232B9327A9054800F09AFDD3E7FFF76A
:100A500065FED9E70048004000380240000C024023
:100A600070B5ACB0044600212791289129912A91B4
:100A70002B91902203A804F0B5FB2368B3F1A04F9B
:100A800001D02CB070BD4FF40013039303A801F004
:100A90000BFB002835D11C4C236B43F0010323636F
:100AA000236B03F001030093009B4FF4E85327935B
:100AB000022328930025299503232A930A232B93A5
:100AC000124E27A9304600F05BFD4FF400732793C8
:100AD0002895299527A9304600F052FD636B43F015
:100AE00080036363636B03F080030193019B636C7A
:100AF00043F480436364636C03F480430293029B7A
:100B0000BFE7FFF70BFEC6E70038024000000240D7
:100B100030B589B00446214B1A6C42F010021A64B9
:100B20001B6C03F010030193019B02A903A801F0C1
:100B30009DFA069BCBB901F079FA0346184AA2FB4D
:100B400003239B0C013B1748174A026040F2E7322F
:100B5000C2604360002303618360836101F048FF4A
:100B6000054630B1284609B030BD01F05FFA4300B8
:100B7000E4E70C4801F09AFD05460028F2D1362042
:100B800000F0F0FC0F2C01D90125EBE700222146F3
:100B9000362000F0D7FC054B1C60E3E7003802402C
:100BA00083DE1B434C0B0020001000400800002097
:100BB000FEE7FEE7FEE7FEE7FEE7704708B50248FE
:100BC00000F057FB08BD00BF240B002008B5024809
:100BD00001F0B8FD08BD00BF4C0B002010B5034666
:100BE0000C4A0D490D48006840B10C4800680344A8
:100BF000521A934206D8094A136010BD0748084CA0
:100C00000460F2E704F022FB0C2303604FF0FF3096
:100C1000F3E700BF0000082000040000980B00204C
:100C2000485A0020034AD2F8883043F47003C2F8CF
:100C30008830704700ED00E0DFF834D00D480E49F1
:100C40000E4A002302E0D458C4500433C4188C4226
:100C5000F9D30B4A0B4C002301E013600432A2428B
:100C6000FBD3FFF7DFFF04F0F7FAFFF71DFE704735
:100C700000000820000000204C05002090560008CD
:100C800050050020485A0020FEE708B5032000F078
:100C900047FC0F20FFF73CFFFFF740FE002008BD98
:100CA000034A1168034B1B780B441360704700BF65
:100CB0009C0B002004000020014B1868704700BF07
:100CC0009C0B002038B50446FFF7F6FF0546B4F14B
:100CD000FF3F02D0044B1B781C44FFF7EDFF401B85
:100CE000A042FAD338BD00BF04000020002800F065
:100CF000A18038B5044690F82030D3B1226813683B
:100D000043F001031360FFF7D7FF054623685A68D5
:100D100012F0010F10D1FFF7CFFF401B0A28F5D9C1
:100D2000636A43F400336362052384F820300120B2
:100D300038BDFFF713FEE1E71A6822F002021A60DD
:100D4000FFF7BAFF054623685A6812F0020F0DD06C
:100D5000FFF7B2FF401B0A28F5D9636A43F400335A
:100D60006362052384F820300120E1E7227E012A16
:100D70003DD01A6822F080021A60637E012B3BD0BE
:100D80002268136823F040031360A37E012B39D03F
:100D90002268136823F020031360E37E012B37D011
:100DA0002268136843F010031360237F012B35D0B2
:100DB0002268136823F008031360637F012B33D08C
:100DC0002268136823F004031360A368E2681343E6
:100DD00022691343626913436268013A216813432D
:100DE000CB6100206062012384F82030A0E71A68FC
:100DF00042F080021A60C0E72268136843F04003A3
:100E00001360C2E72268136843F020031360C4E74D
:100E10002268136823F010031360C6E72268136882
:100E200043F008031360C8E72268136843F0040323
:100E30001360CAE701207047036890F82020013A48
:100E4000D2B2012A05D9436A43F4802343620120C8
:100E5000704730B4454A934200D0454BD3F8002246
:100E600042F00102C3F80022414A934247D04A6946
:100E700002F01F02012000FA02F2D3F81C026FEA0E
:100E8000020C20EA0200C3F81C02C869B0B9D3F80A
:100E90000C020CEA0000C3F80C028C884869CD688B
:100EA00044EA0544483043F830400C8848698D686E
:100EB00044EA0544483003EBC0004460C869012897
:100EC0002BD0886900283FD1D3F804020CEA000037
:100ED000C3F80402086900283CD1D3F814020CEAD4
:100EE0000000C3F81402096A012939D0D3F800229E
:100EF00022F00102C3F80022002030BC7047D3F872
:100F0000002222F47C52C3F80022D3F80022486A5F
:100F100042EA0022C3F80022A9E7D3F80C021043EA
:100F2000C3F80C028C8848690D6844EA05444830CF
:100F300043F830408C8948698D6844EA054448305C
:100F400003EBC0004460BCE7D3F804021043C3F8CD
:100F50000402BFE7D3F814021043C3F81402C2E737
:100F6000D3F81C120A43C3F81C22BFE70034004028
:100F70000064004070B5044690F82050EDB2012D99
:100F800006D0436A43F4002343620125284670BD1E
:100F9000022380F820300268136823F001031360F5
:100FA000FFF78AFE064623685B6813F0010F0CD03A
:100FB000FFF782FE831B0A2BF5D9636A43F40033E3
:100FC0006362052384F82030E0E700256562DDE7F1
:100FD00030B590F820C00468A4680CF1FF3C5FFABB
:100FE0008CFCBCF1010F62D814F0E05F59D0C4F35F
:100FF000016C012404FA0CF41C608B68002B3DD1B9
:101000000D68CB68046843EA45550CF118031B01D1
:10101000E55003680C690CF1180E03EB0E135C60CD
:101020000B7D012B35D0D17993791B0443EA016301
:10103000517943EA012314790168234301EB0C1130
:10104000C1F88C31D17893781B0443EA016351785D
:1010500043EA0123117802680B4302EB0C12C2F839
:10106000883102680CF1180C4FEA0C1C52F80C3055
:1010700043F0010342F80C3000201DE04C6843EAC5
:10108000C403CC6823430CF11804240105682B51D8
:10109000BFE7036803EB0E13596841F48071596090
:1010A000C1E7436A43F400134362012004E0436A4A
:1010B00043F480234362012030BD90F82030013B8F
:1010C000DBB2012B01D9002070470368986810F04B
:1010D000806000D001209A6812F0006F00D00130CB
:1010E0009B6813F0805FEFD00130704790F820C00C
:1010F0000CF1FF3C5FFA8CFCBCF1010F00F2958013
:1011000030B451B90468E46814F0030F10D1436A95
:1011100043F400134362012077E00468246914F06B
:10112000030F05D1436A43F40013436201206CE0CE
:1011300001F11B04240105682C5904F00404946097
:10114000002C64D101F11B04240105682C59640DA5
:101150001460046801F11B0C4FEA0C1C54F80C409D
:1011600004F00204D46004686444646804F00F046A
:101170001461046864446468C4F3072494610468D7
:1011800064446468240C5461026802EB0112D2F8D2
:10119000B8211A70026802EB0112D2F8B821C2F32A
:1011A00007225A70026802EB0112D2F8B821C2F38A
:1011B00007429A70026802EB0112D2F8B821120EAF
:1011C000DA70026802EB0112D2F8BC211A710268CF
:1011D00002EB0112D2F8BC21C2F307225A71026855
:1011E00002EB0112D2F8BC21C2F307429A710268E5
:1011F00002EB0112D2F8BC21120EDA7179B9026841
:10120000D36843F02003D360002030BC704701F165
:101210001B04240105682C59E408546099E702680E
:10122000136943F020031361EEE7436A43F480231C
:1012300043620120704790F82030013BDBB2012B64
:1012400005D9436A43F48023436201207047026852
:1012500053690B43536100207047704770477047D4
:1012600070477047704770477047704770477047C6
:1012700070472DE9F84F054603685C69D3F8048090
:101280009F68D3F80CB0D3F810A0D3F8189014F0DE
:1012900001063BD017F0010616D001229A6017F024
:1012A000020F08D117F0040F0CD117F0080606D072
:1012B0004FF4805608E0FFF7D0FF002604E0FFF768
:1012C000CFFF01E04FF4006617F4807F0DD02B684C
:1012D0004FF480729A6017F4007F40F0868017F414
:1012E000806F00F0868046F4005617F4803F0DD0E2
:1012F0002B684FF480329A6017F4003F40F08380EF
:1013000017F4802F00F0838046F4004614F0080F95
:1013100007D01BF0100F04D046F400762B68102283
:10132000DA6014F0040F02D01BF0080F79D114F02A
:10133000020F04D02B68DB6813F0030F78D114F090
:10134000400F07D01AF0100F04D046F480662B68C7
:1013500010221A6114F0200F02D01AF0080F6BD17E
:1013600014F0100F04D02B681B6913F0030F6AD11F
:1013700014F4003F02D018F0100F68D114F4803F2D
:1013800002D018F0080F69D114F4004F7AD018F089
:10139000040F74D014F4807F04D019F0010F01D031
:1013A00046F0010614F4007F04D019F0020F01D0BA
:1013B00046F0020614F4806F04D019F0040F01D037
:1013C00046F0040614F4006F59D019F0700956D095
:1013D000B9F1400F65D058D8B9F1200F5ED0B9F1FE
:1013E000300F42D146F0200644E02846FFF736FF92
:1013F0007BE717F4006F02D046F4804675E7284675
:10140000FFF72FFF71E72846FFF729FF7EE717F464
:10141000002F02D046F4803678E72846FFF722FFF7
:1014200074E72B680822DA602846FFF71CFF7EE786
:101430002846FFF755F982E72B6808221A612846EB
:10144000FFF713FF8CE72846FFF70EFF90E72B68A6
:1014500010225A602846FFF709FF8FE72B68082201
:101460005A602846FFF703FF8EE7B9F1100F01D14C
:1014700046F008062A68936923F0700393612B688D
:1014800004225A609EB9BDE8F88FB9F1500F0BD015
:10149000B9F1600FEED146F48076EBE746F0100626
:1014A000E8E746F04006E5E746F08006E2E76B6ACB
:1014B00033436B622846FFF7DBFEE4E7002804DBDA
:1014C0000901C9B2044B1954704700F00F0009011B
:1014D000C9B2024B1954704700E400E014ED00E07B
:1014E00000B500F00700C0F1070CBCF1040F28BFE5
:1014F0004FF0040C031D062B0FD9C31E4FF0FF3E07
:101500000EFA0CF021EA000199400EFA03FE22EADD
:101510000E0241EA02005DF804FB0023EEE7000042
:101520000649CB6823F4E0631B041B0C000200F4A3
:10153000E0600343024A1A43CA60704700ED00E0CE
:101540000000FA0510B50446054BD868C0F3022028
:10155000FFF7C6FF01462046FFF7B0FF10BD00BFF2
:1015600000ED00E0002807DB00F01F024009012326
:101570009340024A42F82030704700BF00E100E08B
:1015800000230F2B00F2F48070B582B066E085680E
:101590004FEA430E032404FA0EF425EA0405CC684E
:1015A00004FA0EF42C438460446824EA02044A6876
:1015B000C2F300129A40224342605DE0DC08083426
:1015C00050F8242003F00705AD004FF00F0E0EFA7F
:1015D00005FE22EA0E0E0A69AA4042EA0E0240F80F
:1015E00024205DE0092200E0002202FA0EF22A43E4
:1015F0000234604D45F824205F4A94686FEA0C027B
:1016000024EA0C054E6816F4801F01D04CEA04054C
:10161000594CA560E46802EA04054E6816F4001F00
:1016200001D04CEA0405544CE560646802EA040504
:101630004E6816F4003F01D04CEA04054E4C65603C
:10164000246822404D6815F4803F01D04CEA040222
:10165000494C226001330F2B00F2888001229A400E
:101660000C6804EA020C32EA0404F3D14C6804F07A
:101670000304013C012C8AD94A6802F00302032AC0
:1016800009D0C4685D000322AA4024EA02048A68E3
:10169000AA402243C2604A6802F00302022A8DD0A7
:1016A00004684FEA430E032202FA0EF224EA02040F
:1016B0004A6802F0030202FA0EF2224302604A680C
:1016C00012F4403FC6D02D4A546C44F48044546414
:1016D000526C02F480420192019A9C08A51C254A92
:1016E00052F8255003F0030E4FEA8E0E0F2202FA35
:1016F0000EF225EA0205224A90423FF475AF02F548
:101700008062904222D002F58062904220D002F5A1
:10171000806290421ED002F5806290421CD002F599
:10172000806290421AD002F58062904218D002F591
:101730008062904216D002F58062904214D002F589
:10174000806290423FF44EAF0A224EE701224CE7FE
:1017500002224AE7032248E7042246E7052244E73B
:10176000062242E7072240E708223EE702B070BDAA
:10177000704700BF00380140003C01400038024083
:10178000000002400AB1816170470904816170471D
:10179000436901EA030221EA030141EA024181614E
:1017A000704770B58AB0002800F09780054604683D
:1017B00090F8BD343BB3032385F8BD34E36B13F4D9
:1017C000807F01D100232B61286801F07DFC2C462D
:1017D00054F8106BEC460FCCACE80F000FCCACE823
:1017E0000F0094E803008CE803002B1D0ECB30465D
:1017F00001F02CFC044658B1022385F8BD340124C5
:1018000020460AB070BD80F8BC34FFF729F9D2E752
:101810000021286801F08AFD234616E003EBC3028D
:1018200005EB8202012182F83D1082F83C30A2F8DB
:101830004430002182F840109164D16403EBC3026C
:1018400005EB820251650133DBB269688B42E5D357
:1018500016E004EBC40305EB8303002283F87D222A
:1018600083F87C4283F88022C3F88822C3F88C2254
:1018700004EBC40305EB8303C3F894220134E4B200
:10188000A142E6D82C4654F8106BEC460FCCACE8DD
:101890000F000FCCACE80F0094E803008CE80300C5
:1018A0002B1D0ECB304601F06BFC044660B90023C3
:1018B00085F83830012385F8BD346B6A012B08D0D8
:1018C000286801F021FD9BE7022385F8BD3401243F
:1018D00096E7284600F004F8F2E7012490E70000BC
:1018E000034602680121C0F80015002083F8F404C3
:1018F000936943F000639361516D024B0B43536551
:10190000704700BF03000010024A136843F480735D
:10191000136070470070004010B582B01B4B1A6C0A
:1019200042F080521A641B6C03F080530193019BB8
:10193000174A136843F480331360FFF7BDF9044678
:10194000134B5B6813F4803F08D1FFF7B5F9001B18
:10195000B0F57A7FF4D9032002B010BD0C4A1368A9
:1019600043F400331360FFF7A7F90446084B5B68A4
:1019700013F4003F07D1FFF79FF9001BB0F57A7F02
:10198000F4D90320E8E70020E6E700BF0038024072
:1019900000700040002800F0068270B582B0044656
:1019A000036813F0010F29D0954B9B6803F00C03DB
:1019B000042B1AD0924B9B6803F00C03082B0FD01A
:1019C0006368B3F5803F40D0002B54D18C4B1A682C
:1019D00022F480321A601A6822F480221A6039E0F8
:1019E000874B5B6813F4800FEAD0854B1B6813F4B8
:1019F000003F03D06368002B00F0D781236813F009
:101A0000020F74D07E4B9B6813F00C0F5ED07C4BA2
:101A10009B6803F00C03082B53D0E368002B00F005
:101A20008980774A136843F001031360FFF744F994
:101A30000546734B1B6813F0020F72D1FFF73CF998
:101A4000401B0228F5D90320B4E16D4A136843F422
:101A50008033136063682BB3FFF72EF90546684B9C
:101A60001B6813F4003FC9D1FFF726F9401B642817
:101A7000F5D903209EE1B3F5A02F09D0604B1A6879
:101A800022F480321A601A6822F480221A60E1E798
:101A90005B4B1A6842F480221A601A6842F4803262
:101AA0001A60D7E7FFF708F90546554B1B6813F492
:101AB000003FA3D0FFF700F9401B6428F5D90320AD
:101AC00078E14F4B5B6813F4800FA6D14C4B1B6839
:101AD00013F0020F03D0E368012B40F06881484AFD
:101AE000136823F0F803216943EAC10313602368F4
:101AF00013F0080F46D0636983B3414A536F43F034
:101B000001035367FFF7D8F805463D4B5B6F13F0B1
:101B1000020F37D1FFF7D0F8401B0228F5D9032078
:101B200048E1374A136823F0F803216943EAC10307
:101B30001360DCE7324A136823F001031360FFF7F8
:101B4000BBF805462E4B1B6813F0020FCFD0FFF7F2
:101B5000B3F8401B0228F5D903202BE1284A536F24
:101B600023F001035367FFF7A7F80546244B5B6F8B
:101B700013F0020F06D0FFF79FF8401B0228F5D99B
:101B8000032017E1236813F0040F7DD01C4B1B6C5E
:101B900013F0805F1ED11A4B1A6C42F080521A6407
:101BA0001B6C03F080530193019B0125154B1B68AF
:101BB00013F4807F10D0A368012B25D0002B3BD1DC
:101BC0000F4B1A6F22F001021A671A6F22F00402FB
:101BD0001A671EE00025E9E70A4A136843F4807398
:101BE0001360FFF769F80646064B1B6813F4807F05
:101BF000E1D1FFF761F8801B6428F5D90320D9E013
:101C00000038024000700040724A136F43F0010335
:101C10001367A36833B3FFF74FF806466D4B1B6F8E
:101C200013F0020F2FD1FFF747F8801B41F28833E2
:101C30009842F3D90320BDE0052B09D0654B1A6FFC
:101C400022F001021A671A6F22F004021A67E0E715
:101C5000604B1A6F42F004021A671A6F42F00102D9
:101C60001A67D6E7FFF728F806465A4B1B6F13F0A2
:101C7000020F08D0FFF720F8801B41F2883398420A
:101C8000F3D9032096E0FDB9A369002B00F0918001
:101C9000504A926802F00C02082A59D0022B19D03F
:101CA0004C4A136823F080731360FFF705F804466D
:101CB000484B1B6813F0007F48D0FEF7FDFF001B68
:101CC0000228F5D9032075E0424A136C23F08053B3
:101CD0001364D9E73F4A136823F080731360FEF75B
:101CE000EBFF05463B4B1B6813F0007F06D0FEF769
:101CF000E3FF401B0228F5D903205BE0E369226A79
:101D00001343626A43EA8213A26A5208013A43EA21
:101D10000243E26A43EA0263226B43EA02732D4AFA
:101D20005360136843F080731360FEF7C5FF0446E9
:101D3000284B1B6813F0007F06D1FEF7BDFF001B88
:101D40000228F5D9032035E0002033E0002031E0FF
:101D5000204A5268012B2FD002F48003E1698B42A4
:101D60002CD102F03F03216A8B4229D1616A47F6E8
:101D7000C0731340B3EB811F24D102F44031A36A36
:101D80005B08013BB1EB034F1ED102F07063E16AC7
:101D9000B3EB016F1AD102F0E042236BB2EB037F89
:101DA00016D1002006E001207047012002E001204A
:101DB00000E0002002B070BD0120FBE70120F9E740
:101DC0000120F7E70120F5E70120F3E70120F1E723
:101DD0000120EFE70038024008B5334B9B6803F061
:101DE0000C03042B5BD0082B5BD12F4B5A6802F0FD
:101DF0003F025B6813F4800F2CD02B4B5868C0F364
:101E000088104FEA401CBCEB000C6EEB0E0E4FEA44
:101E10008E1343EA9C634FEA8C11B1EB0C0163EB28
:101E20000E03DB0043EA5173C90011EB000C43F1D0
:101E30000003590200234FEA4C2041EADC51FEF72F
:101E4000FFF9194B5B68C3F3014301335B00B0FB3F
:101E5000F3F027E0144B5868C0F388104FEA401C99
:101E6000BCEB000C6EEB0E0E4FEA8E1343EA9C6344
:101E70004FEA8C11B1EB0C0163EB0E03DB0043EA7C
:101E80005173C90011EB000C43F1000399020023C8
:101E90004FEA8C2041EA9C51FEF7D2F9D1E7034882
:101EA00000E0034808BD00BF0038024000127A007D
:101EB0000024F400002800F0A08070B50D46044610
:101EC000524B1B6803F00F038B420BD24F4A13682F
:101ED00023F00F030B431360136803F00F038B42CF
:101EE00040F08D80236813F0020F17D013F0040F19
:101EF00004D0474A936843F4E0539360236813F097
:101F0000080F04D0424A936843F460439360404A08
:101F1000936823F0F003A1680B439360236813F0E8
:101F2000010F31D06368012B20D0022B25D0384A15
:101F3000126812F0020F64D035498A6822F0030259
:101F400013438B60FEF7B8FE0646314B9B6803F0E7
:101F50000C036268B3EB820F16D0FEF7ADFE801B58
:101F600041F288339842F0D9032045E0284A1268AC
:101F700012F4003FE0D101203EE0254A126812F041
:101F8000007FD9D1012037E0204B1B6803F00F03FD
:101F9000AB420AD91D4A136823F00F032B43136089
:101FA000136803F00F03AB422DD1236813F0040F25
:101FB00006D0174A936823F4E053E1680B4393601B
:101FC000236813F0080F07D0114A936823F4604385
:101FD000216943EAC1039360FFF7FEFE0C4B9B6847
:101FE000C3F303130B4AD35CD8400B4B18600B4B65
:101FF0001868FEF78DFD002070BD0120704701209C
:10200000FAE70120F8E70120F6E700BF003C0240B4
:10201000003802405456000800000020080000204C
:10202000014B1868704700BF0000002008B5FFF79B
:10203000F7FF044B9B68C3F38223034AD35CD84069
:1020400008BD00BF003802404C56000808B5FFF735
:10205000E7FF044B9B68C3F34233034AD35CD84089
:1020600008BD00BF003802404C5600080F23036033
:102070000B4B9A6802F0030242609A6802F0F00289
:1020800082609A6802F4E052C2609B68DB0803F445
:10209000E0530361034B1B6803F00F030B607047B1
:1020A00000380240003C0240F0B583B004460668A8
:1020B00016F001060DD0B54B9A6822F400029A6022
:1020C0009A68416B0A439A60436B002B00F067816A
:1020D0000026256815F4002511D0AC4AD2F88C30C2
:1020E00023F44013E16B0B43C2F88C30E36BB3F580
:1020F000801F00F05681002B00F0558100252368D9
:1021000013F4801F0FD0A14AD2F88C3023F440037F
:10211000216C0B43C2F88C30236CB3F5800F00F0B8
:10212000448103B90125236813F0807F00D0012684
:1021300013F0200F40F03B81236813F0100F0CD0F8
:10214000924BD3F88C2022F08072C3F88C20D3F805
:102150008C20A16B0A43C3F88C20236813F4804FB2
:1021600008D08A4AD2F8903023F44033616E0B4392
:10217000C2F89030236813F4004F08D0834AD2F895
:10218000903023F44023A16E0B43C2F890302368B3
:1021900013F4803F08D07D4AD2F8903023F44013E6
:1021A000E16E0B43C2F89030236813F4003F08D06F
:1021B000764AD2F8903023F44003216F0B43C2F8E3
:1021C0009030236813F0400F08D0704AD2F8903056
:1021D00023F00303616C0B43C2F89030236813F0C3
:1021E000800F08D0694AD2F8903023F00C03A16C1C
:1021F0000B43C2F89030236813F4807F08D0634A01
:10220000D2F8903023F03003E16C0B43C2F89030E9
:10221000236813F4007F08D05C4AD2F8903023F092
:10222000C003216D0B43C2F89030236813F4806F14
:1022300008D0564AD2F8903023F44073616D0B43B6
:10224000C2F89030236813F4006F08D04F4AD2F8D8
:10225000903023F44063A16D0B43C2F890302368A3
:1022600013F4805F08D0494AD2F8903023F44053E9
:10227000E16D0B43C2F89030236813F4005F08D07F
:10228000424AD2F8903023F44043216E0B43C2F807
:102290009030236813F4800F08D03C4AD2F8903075
:1022A00023F08063A16F0B43C2F89030236813F4CE
:1022B000001F0DD0354AD2F8903023F00063E16F53
:1022C0000B43C2F89030E36FB3F1006F00F0D5809C
:1022D000236813F0080F00D0012513F4802F08D0D5
:1022E0002A4AD2F8903023F04073616F0B43C2F852
:1022F0009030236813F4000F09D0244AD2F89030AC
:1023000023F08053D4F880100B43C2F89030236838
:1023100013F0806F09D01D4AD2F8903023F000539B
:10232000D4F884100B43C2F89030236813F0006F88
:1023300009D0164AD2F88C3023F00073D4F88810F4
:102340000B43C2F88C30236813F0805F09D00F4A2A
:10235000D2F88C3023F08063D4F88C100B43C2F891
:102360008C3026B9236813F0007F00F00681074AFD
:10237000136823F080631360FEF79EFC0646034B50
:102380001B6813F0006F7AD002E000BF00380240F3
:10239000FEF792FC801B6428F1D90320F0E00126AF
:1023A00097E60126A7E60125A9E60126B9E67F4BB7
:1023B0001A6C42F080521A641B6C03F08053019334
:1023C000019B7B4A136843F480731360FEF774FC2F
:1023D0000746774B1B6813F4807F06D1FEF76CFC31
:1023E000C01B6428F5D90320CAE0704B1B6F13F49F
:1023F000407315D0226B02F440729A4210D06B4B9E
:102400001A6F22F44072196F41F480311967196F05
:1024100021F4803119671A671B6F13F0010F12D175
:10242000236B03F44072B2F5407F1DD05F4A93687E
:1024300023F4F81393605D490B6F226BC2F30B0218
:1024400013430B6778E6FEF737FC0746574B1B6FC5
:1024500013F0020FE4D1FEF72FFCC01B41F28833CA
:102460009842F3D903208BE05048826822F4F81296
:10247000504919400A438260DDE7012528E72368B7
:1024800013F0010F13D0636B8BB9484AD2F8843034
:10249000D2F88410606803F4403343EA801301F0FB
:1024A00070610B43A16843EA0173C2F8843023686A
:1024B00013F4002F03D0E26BB2F5801F06D013F4A3
:1024C000801F1ED0236CB3F5800F1AD1374AD2F883
:1024D0008430D2F88410606803F4403343EA8013F8
:1024E000E06843EA006301F0E0410B43C2F8843046
:1024F000D2F88C3023F01F03616A01390B43C2F814
:102500008C30236813F0807F11D0284AD2F88400E1
:10251000D2F88410666823691B0443EA861300F02E
:102520007060034301F0E0410B43C2F8843023683C
:1025300013F0007F0DD0626823691B0443EA821305
:10254000E26843EA0263A26843EA0273174AC2F8E8
:102550008430164A136843F080631360FEF7ACFBC7
:102560000646124B1B6813F0006F06D1FEF7A4FB62
:10257000801B6428F5D9032002E0012D02D0002041
:1025800003B0F0BD094A136823F080531360FEF7CF
:1025900093FB0546054B1B6813F0005F0CD0FEF75C
:1025A0008BFB401B6428F5D90320E9E70038024083
:1025B00000700040FFFCFF0F236813F4002F01D0D0
:1025C000E26B22B113F4801F1DD0236CDBB9354AB6
:1025D000D2F88830D2F88810606903F4403343EAB7
:1025E0008013A06943EA006301F0E0410B43C2F8A5
:1025F0008830D2F88C3023F4F853A16A013943EAC9
:102600000123C2F88C30236813F4001F03D0E36F5A
:10261000B3F1006F31D0236813F0080F19D0214AAD
:10262000D2F88810D2F88830606903F4403343EA66
:10263000801301F070610B43E16943EA0173C2F852
:102640008830D2F88C3023F44033E16A0B43C2F86F
:102650008C30144A136843F080531360FEF72CFB50
:102660000446104B1B6813F0005F19D1FEF724FBE2
:10267000001B6428F5D9032082E70A4AD2F88800B3
:10268000D2F888106569236A1B0443EA851300F0B9
:102690007060034301F0E0410B43C2F88830BAE7B1
:1026A00000206DE7003802407047000090F83D3090
:1026B000DBB2012B3AD1022380F83D300268D368A7
:1026C00043F00103D36003681A4AB3F1804F18BF87
:1026D00093421DD0A2F57C42934219D002F580624C
:1026E000934215D002F58062934211D002F57842F0
:1026F00093420DD002F57052934209D0A2F5943264
:10270000934205D01A6842F001021A600020704717
:102710009968094A0A40062A18BFB2F5803F07D0D7
:102720001A6842F001021A600020704701207047C9
:10273000002070470000014007000100704770470B
:102740007047704710B5044603681A6912F0020F0B
:1027500011D0DA6812F0020F0DD06FF002021A6188
:102760000123037703689B6913F0030F79D0FFF708
:10277000E6FF0023237723681A6912F0040F12D0B2
:10278000DA6812F0040F0ED06FF004021A6102230F
:10279000237723689B6913F4407F68D02046FFF7B6
:1027A000CEFF0023237723681A6912F0080F12D096
:1027B000DA6812F0080F0ED06FF008021A610423D5
:1027C00023772368DB6913F0030F57D02046FFF708
:1027D000B6FF0023237723681A6912F0100F12D076
:1027E000DA6812F0100F0ED06FF010021A61082391
:1027F00023772368DB6913F4407F46D02046FFF738
:102800009EFF0023237723681A6912F0010F03D07B
:10281000DA6812F0010F3FD123681A6912F0800FB5
:1028200003D0DA6812F0800F3DD123681A6912F4E0
:10283000807F03D0DA6812F0800F3BD123681A69D9
:1028400012F0400F03D0DA6812F0400F39D123683C
:102850001A6912F0200F03D0DA6812F0200F37D176
:1028600010BDFFF76BFF2046FFF76AFF81E72046A8
:10287000FFF764FF2046FFF763FF92E72046FFF76C
:102880005DFF2046FFF75CFFA3E72046FFF756FFFA
:102890002046FFF755FFB4E76FF001021A612046AA
:1028A000FDF730FFB8E76FF080021A61204600F0B4
:1028B000D0F8BAE76FF480721A61204600F0CAF8C7
:1028C000BCE76FF040021A612046FFF73AFFBEE70F
:1028D0006FF020021A61204600F0BAF8C0E700004D
:1028E00030B503683B4A904214BF4FF0000E4FF0E2
:1028F000010EB0F1804F14BF72464EF00102AAB92A
:10290000354CA04214BF00240124344DA8420DD000
:1029100064B904F1804404F58234A04214BF002459
:10292000012405F50065A84200D01CB123F0700316
:102930004C682343002A33D1274A904214BF002217
:102940000122264CA0422BD052BB02F1804202F55C
:102950008232904214BF0022012204F50064A0429A
:102960001ED0EAB91E4A904214BF0022012204F58B
:102970009A34A04214D09AB91A4A904214BF002245
:10298000012204F50064A0420AD04AB9164A9042D6
:1029900014BF00220122A4F59634A04200D022B137
:1029A00023F4407CCB6843EA0C0323F080034A699C
:1029B000134303608A68C2620A6882620B4A9042CB
:1029C00014BF73464EF001030BB10B69036301237F
:1029D000436130BD00000140000800400004004099
:1029E0000044014000180040002000400004014065
:1029F00060B310B5044690F83D3013B3022384F859
:102A00003D30214651F8040BFFF76AFF012384F89B
:102A1000483084F83E3084F83F3084F8403084F801
:102A2000413084F8423084F8433084F8443084F8EC
:102A3000453084F8463084F8473084F83D30002033
:102A400010BD80F83C30FFF72FFED7E7012070471C
:102A5000704770477047000010B5044683680269EC
:102A6000134342691343C269134301680868934AD8
:102A700002401A430A602268536823F44053E16815
:102A80000B435360A269236A1A4321688B6823F4BD
:102A9000306313438B602368894A934219D0894A73
:102AA000934229D0884A93423ED0884A934262D0CA
:102AB000874A934271D0874A934200F08380864AC6
:102AC000934200F09480854A934200F0A580102341
:102AD0003AE0834BD3F8903003F00303032B09D87B
:102AE000DFE803F00204AE0601232DE004232BE00F
:102AF000082329E0102327E0794BD3F8903003F026
:102B00000C030C2B0ED8DFE803F0070D0D0D090D9B
:102B10000D0D9D0D0D0D0B00002315E0042313E09A
:102B2000082311E010230FE06D4BD3F8903003F031
:102B30003003202B00F0888019D8002B00F086800D
:102B4000102B40F085800423E069B0F5004F00F0C1
:102B5000AB80082B00F20C81DFE813F0E800FB00EB
:102B6000E6000A01FE000A010A010A010101302BF8
:102B700070D10823E8E75A4BD3F8903003F0C00334
:102B8000802B69D005D8002B68D0402B68D1042356
:102B9000DAE7C02B66D10823D6E7514BD3F8903043
:102BA00003F44073B3F5007F5ED006D8002B5DD0F0
:102BB000B3F5807F5CD10423C6E7B3F5407F59D1DC
:102BC0000823C1E7464BD3F8903003F44063B3F5D4
:102BD000006F51D006D8002B50D0B3F5806F4FD185
:102BE0000423B1E7B3F5406F4CD10823ACE73C4B6D
:102BF000D3F8903003F44053B3F5005F44D006D8C7
:102C0000002B43D0B3F5805F42D104239CE7B3F59A
:102C1000405F3FD1082397E7314BD3F8903003F45E
:102C20004043B3F5004F37D005D8BBB3B3F5804F61
:102C300036D1042388E7B3F5404F33D1082383E727
:102C4000022381E702237FE702237DE700237BE75E
:102C5000102379E7102377E7022375E7002373E752
:102C6000102371E710236FE702236DE700236BE762
:102C7000102369E7102367E7022365E7012363E771
:102C8000102361E710235FE702235DE700235BE782
:102C9000102359E7102357E7022355E7002353E792
:102CA000102351E710234FE7082B5BD8DFE803F030
:102CB0001A343A5A375A5A5A1E0000BFF369FFEFC6
:102CC000001001400044004000480040004C00401B
:102CD000005000400014014000780040007C00409B
:102CE00000380240FFF7A2F900283DD0626853087F
:102CF00003EB4003B3FBF2F3A3F110014FF6EF72C5
:102D0000914233D89AB222F00F02C3F34203134325
:102D10002268D360002030E0FFF798F9E4E7FFF77E
:102D20005BF8E1E71748E1E7164802E0FFF77EF9B4
:102D300000B3636800EB5300B0FBF3F0A0F11002A6
:102D40004FF6EF739A4217D8236880B2D8600020FC
:102D500013E0FFF77BF9EBE7FFF73EF8E8E74FF406
:102D60000040E6E7012008E0002006E0012004E042
:102D7000012002E0002000E001200023A366E366BA
:102D800010BD00BF0024F400436A13F0010F06D009
:102D90000268536823F40033816A0B435360436A2B
:102DA00013F0020F06D00268536823F48033C16A1F
:102DB0000B435360436A13F0040F06D00268536854
:102DC00023F48023016B0B435360436A13F0080F15
:102DD00006D00268536823F40043416B0B435360F1
:102DE000436A13F0100F06D00268936823F48053EF
:102DF000816B0B439360436A13F0200F06D0026887
:102E0000936823F40053C16B0B439360436A13F040
:102E1000400F0AD00268536823F48013016C0B43FF
:102E20005360036CB3F5801F0BD0436A13F0800F1F
:102E300006D00268536823F40023816C0B4353606F
:102E400070470268536823F4C003416C0B4353601E
:102E5000EBE72DE9F84305460F4616469946DDF89F
:102E600020802B68DC6937EA04040CBF01240024AD
:102E7000B44255D1B8F1FF3FF3D0FDF71DFFA0EBF1
:102E8000090040452ED8B8F1000F2BD02B681A68E6
:102E900012F0040FE5D0DA6912F4006FE1D04FF4BC
:102EA00000621A622A6852E8003F23F4D07342E8B5
:102EB00000310029F6D12A6802F1080353E8003FE7
:102EC00023F00103083242E800310029F3D1202326
:102ED000EB67C5F88030C5F88430002385F878307A
:102EE00003201EE02A6852E8003F23F4D07342E832
:102EF00000310029F6D12A6802F1080353E8003FA7
:102F000023F00103083242E800310029F3D12023E5
:102F1000EB67C5F88030002385F87830032000E0A7
:102F20000020BDE8F88330B583B004460023C0F824
:102F30008430FDF7C1FE05462268126812F0080FC2
:102F40000FD123681B6813F0040F18D12023E36707
:102F5000C4F8803000202066606684F8780003B0F2
:102F600030BD6FF07E430093034600224FF4001102
:102F70002046FFF76EFF0028E3D00320EFE76FF055
:102F80007E4300932B4600224FF480012046FFF73A
:102F900060FF0028DAD00320E1E768B310B50446EB
:102FA000C36F03B32423E3672268136823F001038C
:102FB00013602046FFF750FD012813D0636ABBB9A8
:102FC0002268536823F4904353602268936823F087
:102FD0002A0393602268136843F0010313602046BC
:102FE000FFF7A1FF10BD80F87830FDF7F3FCD9E7BB
:102FF0002046FFF7C9FEE3E70120704782B00023B7
:103000000193019B01330193019A0F4B9A4215D80A
:103010000369002BF5DA00230193036943F00103F0
:103020000361019B01330193019A074B9A4208D82F
:10303000036913F0010FF4D1002000E0032002B077
:1030400070470320FBE700BF400D030084B010B5BC
:10305000044603A880E80E00089B012B1DD1A36B3A
:1030600023F48033A363E268164B1340E360E36804
:1030700023F44013E3600F9B012B09D02046FFF798
:10308000BDFF069B012B14D0BDE8104004B0704773
:10309000E36843F48013E360F0E7E36843F0400340
:1030A000E3602046FFF7AAFFA36B43F48033A363DA
:1030B000E7E7A36843F00603A360A36843F0200397
:1030C000A360E1E7BFFFBDFF836823F001038360D6
:1030D0000020704782B000230193019B01330193CC
:1030E000019A0F4B9A4215D80369002BF5DA002399
:1030F0000193890141F020010161019B013301939A
:10310000019A074B9A4208D8036913F0200FF4D1B3
:10311000002000E0032002B070470320FBE700BF5F
:10312000400D030082B000230193019B0133019302
:10313000019A0E4B9A4213D80369002BF5DA00234B
:10314000019310230361019B01330193019A074B03
:103150009A4208D8036913F0100FF4D1002000E060
:10316000032002B070470320FBE700BF400D0300BF
:10317000D0F800381943C0F800180020704700004C
:1031800084B02DE9F041044607A880E80E00002332
:1031900006E003F1400204EB82020021516001339A
:1031A0000E2BF6D9119F27BBD4F8043843F0020345
:1031B000C4F80438A36B23F40013A363236843F01B
:1031C00040032360236843F0800323600023C4F896
:1031D000003E04F50065D4F80038C4F800380C9BB4
:1031E000012B10D1099B4BB900212046FFF7C0FFEE
:1031F0000DE0A36B43F40013A363E7E7012120462E
:10320000FFF7B6FF03E003212046FFF7B1FF1021CF
:103210002046FFF75FFF804608B14FF001082046C7
:10322000FFF780FF08B14FF0010800232B616B61AD
:10323000EB610AE0C3B94FF00060C2F80009002258
:103240000A614FF67F328A6001330799994210D99B
:1032500004EB431202F51061D2F800090028E9DB03
:103260000020C2F80009EAE74FF09040C2F80009D8
:10327000E5E700230AE0C3B14FF0904CC2F800CB61
:10328000002202614FF67F3282600133994211D9E8
:1032900004EB431202F53060D2F8006B002EEADB3B
:1032A0004FF0000CC2F800CBEAE74FF0006CC2F818
:1032B00000CBE5E72B6923F480732B610023A36126
:1032C0006FF0804363610A9B1BB9A36943F010034D
:1032D000A361A2690A4B1343A3610D9B1BB1A369B0
:1032E00043F00803A361012F04D04046BDE8F0413C
:1032F00004B07047A269034B1343A361F5E700BF15
:1033000000383C8004000040D0F8003E23F0030366
:10331000C0F8003ED0F8043843F00203C0F8043887
:1033200000207047406900F00100704738B505463D
:10333000C36823F0C043C360012913D019BBC3681D
:1033400043F08043C36000240120FDF7BBFC01343F
:103350002846FFF7E7FF08B1312CF5D9322C14D0FD
:10336000002038BDC36843F00053C360002401202F
:10337000FDF7A8FC01342846FFF7D4FF0128EDD063
:10338000312CF4D9EAE70120EBE70120E9E700005E
:10339000EFF305837BB9EFF3108313B9EFF31183D8
:1033A0001BB1094B1B68022B08D0074B186840B9AA
:1033B00001221A6070476FF0050070476FF005003A
:1033C00070474FF0FF307047A014002008B5EFF3AE
:1033D0000583A3B9EFF3108313B9EFF311831BB186
:1033E0000B4B1B68022B0DD0094B1B68012B0CD11A
:1033F000074B02221A6001F073F9002008BD6FF03C
:103400000500FBE76FF00500F8E74FF0FF30F5E748
:10341000A0140020F0B587B000240594EFF30584D4
:10342000002C39D1EFF3108313B9EFF311831BB1E3
:103430002D4B1B68022B2FD070B32AB315689369EC
:1034400003B918235C1E372C4AD8546814F0010FB6
:1034500048D1566976B14FEA960C946834B1D76872
:10346000B7F5C07F02D3176907B1C6B92CB14FF0C9
:10347000FF340EE04FF0800CEFE7D4688CB914698C
:1034800094B14FF0FF3404E01546002418234FF0A8
:10349000800C012C0AD0ACB1059807B0F0BD012416
:1034A000F7E74FF0FF34F4E70024F2E7146992687D
:1034B0000292019400930B466246294601F09AF865
:1034C0000590E9E705AA019200930B461FFA8CF2DA
:1034D000294601F0D2F80128DED000230593DBE76E
:1034E0000020DAE70020D8E7A014002008B5EFF3A9
:1034F000058383B9EFF3108313B9EFF311831BB185
:10350000084B1B68022B09D008B9002008BD01F048
:103510005BFA0020FAE76FF00500F7E76FF00500AF
:10352000F4E700BFA0140020034B0360034B0B60C3
:1035300080231360704700BF20130020201100205B
:10354000034B0360034B0B604FF4807313607047B1
:10355000A00F0020A00B002000F1080343604FF0F3
:10356000FF328260C3600361002303607047002361
:103570000361704743684B609A688A605160996044
:103580000861036801330360704730B40D68B5F11A
:10359000FF3F11D000F108031C465B681A68AA427D
:1035A000FAD963684B6099608C6061600861036858
:1035B0000133036030BC70470469F2E70369416876
:1035C00082688A60416851605A68824206D000224F
:1035D00002611A68013A1A601868704782685A6076
:1035E000F5E7000082B0002301930F4B1B68B3F195
:1035F000FF3F0AD04FF0500372B683F31188BFF338
:103600006F8FBFF34F8F62B6FEE74FF0500372B675
:1036100083F31188BFF36F8FBFF34F8F62B6019BA7
:10362000002BFCD002B070470C0000200848006856
:10363000006880F308884FF0000080F3148862B6B9
:1036400061B6BFF34F8FBFF36F8F00DF00BF000085
:1036500008ED00E0DFF80C00016841F47001016042
:103660007047000088ED00E04FF0807340F8043CA4
:1036700021F0010140F8081C054B40F80C3C40F8D3
:10368000202C6FF0020340F8243C4438704700BF00
:10369000E535000800000000000000000000000008
:1036A000074B19680868B0E8F04F80F30988BFF34A
:1036B0006F8F4FF0000080F311887047AFF30080E8
:1036C000005600204FF0500372B683F31188BFF309
:1036D0006F8FBFF34F8F62B60C4A136801331360CC
:1036E000012B00D070474FF0E023D3F8043D13F0D6
:1036F000FF0FF7D04FF0500372B683F31188BFF37A
:103700006F8FBFF34F8F62B6FEE700BF0C00002043
:103710000A4B1B6853B94FF0500372B683F31188FC
:10372000BFF36F8FBFF34F8F62B6FEE7013B034AD3
:1037300013600BB983F31188704700BF0C000020A1
:10374000EFF30980BFF36F8F154B1A681EF0100F4F
:1037500008BF20ED108A20E9F04F10602DE9090024
:103760004FF0500072B680F31188BFF34F8FBFF354
:103770006F8F62B601F050F94FF0000080F31188AE
:1037800009BC19680868B0E8F04F1EF0100F08BFB8
:10379000B0EC108A80F30988BFF36F8F704700BFC9
:1037A0000056002008B54FF0500372B683F311881D
:1037B000BFF36F8FBFF34F8F62B600F0F9FF28B1F0
:1037C0004FF0E0234FF08052C3F8042D002383F321
:1037D000118808BD4FF0E022002313619361054B6F
:1037E0001B680549A1FB03139B09013B5361072398
:1037F0001361704700000020D34D621030B583B0D4
:103800002F4B1A78D2B20192FF221A701B78DBB2CA
:103810008DF803309DF8033003F05003294A1370EC
:10382000294B07221A6009E0274A1368013B1360FD
:103830009DF803305B00DBB28DF803309DF8033058
:1038400013F0800FF0D1204B1B68032B0AD04FF0F0
:10385000500372B683F31188BFF36F8FBFF34F8F9E
:1038600062B6FEE71B02184A136003F4E0631360BC
:10387000019BDBB2124A13704FF0E024D4F8203DD4
:1038800043F47003C4F8203DD4F8203D43F0704366
:10389000C4F8203DFFF79EFF00250C4B1D60FFF78D
:1038A000D9FED4F8343F43F04043C4F8343FFFF727
:1038B000BDFE01F0B1F8FFF795FE284603B030BD1C
:1038C00000E400E0A8140020A41400200C00002054
:1038D000EFF305830F2B11D9134A9B5CDBB2134A1C
:1038E00012789A420AD94FF0500372B683F31188C6
:1038F000BFF36F8FBFF34F8F62B6FEE74FF0E02349
:10390000D3F80C3D03F4E063094A126893420AD9E4
:103910004FF0500372B683F31188BFF36F8FBFF37C
:103920004F8F62B6FEE77047F0E300E0A814002076
:10393000A4140020124A12F0070F1ED0D11D21F04E
:103940000701C1F5705313440A460E480260002176
:1039500041601344083B23F007030B4803605960A0
:103960001960991A51601360084B1960084B19606F
:10397000084B4FF000421A6070474FF47053E4E771
:10398000C4140020BC140020B8140020B01400207F
:10399000B4140020AC140020164B1A461B68834256
:1039A000FBD3516802EB010C844509D0416800EB60
:1039B000010C634509D00360904219D01060704734
:1039C0004068014451601046F0E710B40A4C246886
:1039D000A3420BD05B681944416013681B68036005
:1039E000904200D010605DF8044B70470460F7E728
:1039F000704700BFBC140020B814002038B504463E
:103A000000F0C8FE384B1B68B3B1384B1B681C4232
:103A10004ED1002C4ED004F1080214F0070F02D052
:103A200022F007020832002A55D0314B1B6893421E
:103A300053D330490C6804E0FFF77CFFE5E72146EB
:103A40001C466368934202D22368002BF7D1264BB1
:103A50001B68A34243D00D68083523680B60636878
:103A60009B1A102B12D9A01810F0070F0AD04FF094
:103A7000500372B683F31188BFF36F8FBFF34F8F7C
:103A800062B6FEE743606260FFF786FF626818492E
:103A90000B689B1A0B60184909688B4201D21649C2
:103AA0000B60124B1B68134363600023236002E02A
:103AB000002500E0002500F009FF15F0070F10D0E9
:103AC0004FF0500372B683F31188BFF36F8FBFF3CB
:103AD0004F8F62B6FEE70025EDE70025EBE70025F6
:103AE000E9E7284638BD00BFB8140020AC14002018
:103AF000B4140020BC140020B0140020002834D0DE
:103B000038B50446A0F1080550F8043C174A12687D
:103B100013420AD14FF0500372B683F31188BFF3FA
:103B20006F8FBFF34F8F62B6FEE750F8081C51B19C
:103B30004FF0500372B683F31188BFF36F8FBFF35A
:103B40004F8F62B6FEE723EA020340F8043C00F020
:103B500021FE54F8041C064A13680B4413602846DF
:103B6000FFF71AFF00F0B2FE38BD7047AC1400201A
:103B7000B414002010B50446FFF7A4FDA26BE36B5C
:103B80009A4204D00024FFF7C3FD204610BD012453
:103B9000F9E710B50446FFF795FDA36B23B901249F
:103BA000FFF7B6FD204610BD0024F9E770B50446C6
:103BB0001546866B026C5AB903681BB100200136AA
:103BC000A66370BD806801F063F80023A360F6E788
:103BD0006DB9406801F066FB6368226C1344636052
:103BE000A268934219D3236863602846E7E7C06858
:103BF00001F058FBE368226C51429B1AE360226893
:103C0000934202D2A3680B44E360022D01D000204E
:103C1000D5E726B1013E0020D1E72846CFE70020B6
:103C2000CDE70346026C6AB110B50846D968114465
:103C3000D9609C68A14201D31968D960D96801F0A4
:103C400031FB10BD704738B50546FFF73BFD95F8D1
:103C5000454064B201E0013C64B2002C0ADD6B6AAD
:103C600043B105F1240000F063FF0028F3D000F019
:103C7000F9FFF0E7FF2385F84530FFF749FDFFF72F
:103C800021FD95F8444064B201E0013C64B2002C8F
:103C90000ADD2B6943B105F1100000F049FF00284F
:103CA000F3D000F0DFFFF0E7FF2385F84430FFF7A3
:103CB0002FFD38BD38B5E0B10D460446FFF702FDD3
:103CC0002368E26B216C01FB0230A0600020A0633E
:103CD0006360013A02FB0133E360FF2384F8443060
:103CE00084F845300DBB236973B9FFF711FD01203E
:103CF00038BD4FF0500372B683F31188BFF36F8F56
:103D0000BFF34F8F62B6FEE704F1100000F010FF22
:103D10000028EAD04FF0E0234FF08052C3F8042D82
:103D2000BFF34F8FBFF36F8FDFE704F11000FFF792
:103D300013FC04F12400FFF70FFCD6E738B51D464D
:103D4000049C0B4649B92460E063236401212046AA
:103D5000FFF7B0FF84F84C5038BD2260F4E750B94B
:103D60004FF0500372B683F31188BFF36F8FBFF328
:103D70004F8F62B6FEE710B584B01C4693B10B1EA0
:103D800018BF0123002A08BF43F00103ABB94FF06D
:103D9000500372B683F31188BFF36F8FBFF34F8F59
:103DA00062B6FEE74FF0500372B683F31188BFF39B
:103DB0006F8FBFF34F8F62B6FEE7B1FA81F35B09F5
:103DC000002A18BF43F0010353B94FF0500372B6F5
:103DD00083F31188BFF36F8FBFF34F8F62B6FEE797
:103DE00050230393039B502B0AD04FF0500372B61D
:103DF00083F31188BFF36F8FBFF34F8F62B6FEE777
:103E0000039B012384F8463000949DF81830FFF797
:103E100095FF204604B010BDF0B585B0019298B171
:103E20000F461D460446D1B1022D26D1E36B012B6E
:103E300023D04FF0500372B683F31188BFF36F8F16
:103E4000BFF34F8F62B6FEE74FF0500372B683F3B5
:103E50001188BFF36F8FBFF34F8F62B6FEE7036C1D
:103E6000002BE1D04FF0500372B683F31188BFF3FB
:103E70006F8FBFF34F8F62B6FEE700F0F9FE064684
:103E800068B9019B002B4AD04FF0500372B683F300
:103E90001188BFF36F8FBFF34F8F62B6FEE7002626
:103EA0003DE02A4639462046FFF780FE636A7BB92B
:103EB00048B14FF0E0234FF08052C3F8042DBFF318
:103EC0004F8FBFF36F8FFFF723FC012005B0F0BDCC
:103ED00004F1240000F02CFE0028F4D04FF0E02381
:103EE0004FF08052C3F8042DBFF34F8FBFF36F8F95
:103EF000E9E7FFF70DFC0020E8E702A800F060FE0C
:103F0000012619E0002384F8443021E0002384F8DE
:103F1000453023E02046FFF796FE00F0D7FCFFF780
:103F2000D1FBA26BE36B9A42BBD3022DB9D0019BAC
:103F3000002BDED0002EE0D0FFF7EAFB00F02AFCD9
:103F4000FFF7C0FB94F8442052B2B2F1FF3FD9D042
:103F500094F8452052B2B2F1FF3FD7D0FFF7D8FB1B
:103F600001A902A800F038FED8B92046FFF702FEEA
:103F70000028CFD0019904F1100000F0A1FD2046E7
:103F8000FFF761FE00F0A2FC0028C8D14FF0E0234B
:103F90004FF08052C3F8042DBFF34F8FBFF36F8FE4
:103FA000BDE72046FFF74FFE00F090FC00208DE7B4
:103FB0002DE9F843A0B10F4616461C460546D1B17F
:103FC000022C26D1EB6B012B23D04FF0500372B69D
:103FD00083F31188BFF36F8FBFF34F8F62B6FEE795
:103FE0004FF0500372B683F31188BFF36F8FBFF3A6
:103FF0004F8F62B6FEE7036C002BE1D04FF0500309
:1040000072B683F31188BFF36F8FBFF34F8F62B621
:10401000FEE7FFF75DFCEFF311884FF0500372B637
:1040200083F31188BFF36F8FBFF34F8F62B6AA6B14
:10403000EB6B9A4206D3022C04D0002088F311883F
:10404000BDE8F88395F845904FFA89F9224639463C
:104050002846FFF7ABFDB9F1FF3F06D009F1010398
:104060005BB285F845300120E8E76B6A0BB90120A7
:10407000E4E705F1240000F05BFD18B126B1012052
:104080003060DBE70120D9E70120D7E7F0B585B044
:104090000192A0B10F460446E1B100F0E9FD0646E9
:1040A00030BB019B002B64D04FF0500372B683F3FA
:1040B0001188BFF36F8FBFF34F8F62B6FEE74FF0EB
:1040C000500372B683F31188BFF36F8FBFF34F8F26
:1040D00062B6FEE7036C002BDFD04FF0500372B6E0
:1040E00083F31188BFF36F8FBFF34F8F62B6FEE784
:1040F00000263EE039462046FFF793FD013DA563CB
:10410000236923B9FFF704FB012005B0F0BD04F1DA
:10411000100000F00DFD0028F4D04FF0E0234FF028
:104120008052C3F8042DBFF34F8FBFF36F8FE9E7C1
:10413000FFF7EEFA0020E8E702A800F041FD0126B3
:1041400021E0002384F8443029E0002384F845303E
:104150002BE02046FFF777FD00F0B8FB09E0204692
:10416000FFF771FD00F0B2FB2046FFF712FD0028BB
:104170003FD1FFF7A7FAA56B002DBBD1019B002B08
:10418000D6D0002ED8D0FFF7C3FA00F003FBFFF71C
:1041900099FA94F844305BB2B3F1FF3FD1D094F870
:1041A00045305BB2B3F1FF3FCFD0FFF7B1FA01A9C1
:1041B00002A800F011FD0028D1D12046FFF7E9FC4C
:1041C0000028C6D0019904F1240000F079FC2046B3
:1041D000FFF739FD00F07AFB0028CAD14FF0E02349
:1041E0004FF08052C3F8042DBFF34F8FBFF36F8F92
:1041F000BFE7002089E700000023072B0CD8074AFF
:1042000052F833200AB10133F7E7044A42F8331079
:1042100002EBC30250607047704700BFC4500020DB
:1042200070B504460D461646FFF74CFA94F8443034
:104230005BB2B3F1FF3F0DD094F845305BB2B3F100
:10424000FF3F0BD0FFF764FAA36B5BB12046FFF78B
:10425000FAFC70BD002384F84430EDE7002384F8B5
:104260004530EFE73246294604F1240000F042FCD5
:10427000ECE70000084B1B681B6823B9074B4FF0A5
:10428000FF321A607047044B1B68DB68DB685A68B2
:10429000024B1A60704700BF745100200C5100207F
:1042A0002DE9F04780460D4617469946089EDDF8F1
:1042B00024A00A9C9200A521206B00F093FF236BA1
:1042C0006FF040423A4403EB820727F00707002DC6
:1042D00061D04FF0000CBCF10F0F09D815F80C306D
:1042E00004EB0C0282F8343013B10CF1010CF2E74C
:1042F000002384F84330372E00D93726E662E6647F
:1043000000252565201DFFF732F904F11800FFF79D
:104310002EF92461C6F13806A6616462C4F87851AA
:1043200084F87C514FF49072294604F1580000F053
:1043300059FF1B4BE36503F168022266D0336366C5
:1043400001220023C4E93C2343F20E33A4F8F830E1
:104350004AF6CD33A4F8FA3041F23423A4F8FC3005
:104360004EF26D63A4F8FE304DF6EC63A4F8003114
:104370000523A4F802310B23A4F804314A46414630
:104380003846FFF771F92060BAF1000F01D0CAF882
:104390000040BDE8F087002384F83430ABE700BF6D
:1043A0004857002038B5002407E004EB840293004E
:1043B0000E481844FFF7D0F80134372CF5D90C4DCE
:1043C0002846FFF7C9F80B4C2046FFF7C5F80A4806
:1043D000FFF7C2F80948FFF7BFF80948FFF7BCF834
:1043E000084B1D60084B1C6038BD00BFA051002069
:1043F0008C510020785100205C5100204851002051
:1044000030510020745100207051002010B5044636
:10441000FFF758F9224A136801331360214B1B68D8
:104420005BB1214B1B686BB91E4B1B68DA6AE36AF0
:104430009A4207D81B4B1C6004E01A4B1C6013689F
:10444000012B29D0194A1368013313606364E06AB1
:10445000174B1B68984201D9154B186000EB800080
:10446000211D144B03EB8000FFF784F8FFF750F990
:104470000D4B1B687BB10B4B1B68DA6AE36A9A42EF
:1044800009D24FF0E0234FF08052C3F8042DBFF360
:104490004F8FBFF36F8F10BDFFF784FFD2E700BFD0
:1044A0002C510020005600202051002010510020E7
:1044B00024510020A051002010B50446583000F0CF
:1044C00099FE94F87D3173B1012B13D0022B10D0DB
:1044D0004FF0500372B683F31188BFF36F8FBFF3B1
:1044E0004F8F62B6FEE7206BFFF708FB2046FFF711
:1044F00005FB10BD2046FFF701FBFAE70F4B1B68D9
:10450000D3B110B5FFF7DEF80D4BDB68DC68201D7A
:10451000FFF754F80B4A1368013B1360074A13680E
:10452000013B1360FFF7F4F82046FFF7C5FF034B8C
:104530001B68002BE6D110BD704700BF445100201E
:10454000485100202C51002008B5FFF7D7FF074B3A
:104550001B68012BF9D94FF0E0234FF08052C3F8CC
:10456000042DBFF34F8FBFF36F8FEEE7A0510020F4
:1045700070B504460D46194B1E68194B1868043077
:10458000FFF71CF8B4F1FF3F14BF00230123002DF7
:1045900008BF00236BB93444114B1B685C60A64212
:1045A0000ED9104B18680E4B19680431FEF7EDFF59
:1045B00070BD0B4B196804310B48FEF7DBFFF7E7C2
:1045C0000A4B1868064B19680431FEF7DEFF084BEA
:1045D0001B68A342ECD9064B1C60E9E72851002078
:1045E00000560020705100203051002074510020EE
:1045F0000C51002030B587B00B9C9CB10C9DE5B1EF
:104600004FF4C0750495049DB5F5C07F20D04FF0E0
:10461000500372B683F31188BFF36F8FBFF34F8FD0
:1046200062B6FEE74FF0500372B683F31188BFF312
:104630006F8FBFF34F8F62B6FEE74FF0500372B635
:1046400083F31188BFF36F8FBFF34F8F62B6FEE71E
:10465000049D0C9D2C63022485F87D410024039465
:10466000029505AC01940A9C0094FFF719FE0C9882
:10467000FFF7CCFE059807B030BD2DE9F04385B0BB
:104680000746884614461E469000FFF7B7F910B358
:1046900081464FF4C070FFF7B1F90546A8B1C0F8E4
:1046A0003090002380F87D31039302900D9B01939D
:1046B0000C9B00933346224641463846FFF7F0FDF7
:1046C0002846FFF7A3FE012007E04846FFF716FA49
:1046D0004FF0FF3001E04FF0FF3005B0BDE8F08350
:1046E00010B588B000240594069407AA06A905A869
:1046F000FEF71AFF059B0293069B01930094234645
:10470000079A1C491C48FFF775FF1C4B1860F8B14D
:1047100000F07AFB01281CD14FF0500372B683F3EE
:104720001188BFF36F8FBFF34F8F62B6144B1B68B6
:104730005833144A1360144B4FF0FF321A60134B76
:1047400001221A60124B00221A60FFF757F803E0AB
:104750000020B0F1FF3F01D008B010BD4FF0500372
:1047600072B683F31188BFF36F8FBFF34F8F62B6BA
:10477000FEE700BF645600084945000808510020C4
:1047800000560020100000200C5100202051002075
:1047900028510020024A136801331360704700BF9C
:1047A00004510020014B1868704700BF28510020B9
:1047B000F8B53B4B1B68002B66D13A4B1D680135A1
:1047C0001D60D5B9384B1B681B6853B14FF05003BF
:1047D00072B683F31188BFF36F8FBFF34F8F62B64A
:1047E000FEE7314A1168314B186810601960304A91
:1047F000136801331360FFF73DFD2E4B1B68AB427E
:1048000038D900272C4B1B68DB6A03EB83039A0023
:104810002A4B9B58012B3CD901273AE00127224B18
:104820001B681B6843B3204B1B68DB68DC6863684C
:104830009D4226D3261D3046FEF7C0FEA36A1BB15B
:1048400004F11800FEF7BAFEE36A1D4A12689342AB
:1048500001D91B4A136003EB83039A0031461748C2
:104860001044FEF787FEE26A134B1B68DB6A9A422C
:10487000D4D2D4E70027D2E70E4B4FF0FF321A60B4
:10488000C0E70C4A1360BDE70E4A1368013313609A
:1048900000270D4B1B6803B101273846F8BD00BF48
:1048A0000451002028510020745100207051002034
:1048B000145100200C51002000560020A05100206F
:1048C000245100201C5100201851002038B5364BCF
:1048D0001B6853B94FF0500372B683F31188BFF3CE
:1048E0006F8FBFF34F8F62B6FEE7FEF7EBFE2E4BE6
:1048F0001A68013A1A601B68002B4FD12B4B1B68BA
:104900000BB900244BE00024294B1B681BB3284B38
:10491000DB68DC6804F11800FEF750FE251D284610
:10492000FEF74CFEE06A234B1B68984201D9214BED
:10493000186000EB800029461F4B03EB8000FEF758
:1049400019FEE26A1D4B1B68DB6A9A42DCD31C4BE2
:1049500001221A60D8E70CB1FFF78CFC194B1C68D8
:1049600084B9174B1C68D4B14FF0E0234FF080524C
:10497000C3F8042DBFF34F8FBFF36F8F01240EE0F8
:10498000013C07D0FFF714FF0028F9D00C4B01229F
:104990001A60F5E70B4B00221A60E2E70024FEF7ED
:1049A000B7FE204638BD00BF045100202C51002026
:1049B0005C51002024510020A0510020005600200E
:1049C000185100201C51002010B5B8B10446114BFD
:1049D0001B6853B14FF0500372B683F31188BFF3D5
:1049E0006F8FBFF34F8F62B6FEE7FFF7D3FE002154
:1049F0002046FFF7BDFDFFF769FF48B94FF0E02300
:104A00004FF08052C3F8042DBFF34F8FBFF36F8F69
:104A100010BD00BF04510020234B1B681BB1234B6A
:104A200001221A607047214B00221A60204B1B683C
:104A300003EB83018A001F498A586AB90BB1013B15
:104A4000F6E74FF0500372B683F31188BFF36F8F10
:104A5000BFF34F8F62B6FEE7084603EB83018A007F
:104A6000024451684968516003EB830C4FEA8C02A1
:104A70000832024491420FD003EB830291000D4AA9
:104A80000A445268D1680C4A116009490B601368E6
:104A900058330A4A13607047486862469100054AD5
:104AA0000A445060E8E700BF04510020185100207C
:104AB00024510020A05100200056002010000020AA
:104AC00058B110B50C460A4A11681831FEF75DFD61
:104AD00001212046FFF74CFD10BD4FF0500372B688
:104AE00083F31188BFF36F8FBFF34F8F62B6FEE77A
:104AF0000056002038B570B10D4614460B4A1168B7
:104B00001831FEF737FD0CB14FF0FF35214628462E
:104B1000FFF72EFD38BD4FF0500372B683F31188B6
:104B2000BFF36F8FBFF34F8F62B6FEE700560020D2
:104B300038B5C368DC6824B304F118052846FEF7CD
:104B40003DFD194B1B683BBB251D2846FEF736FD76
:104B5000E06A164B1B68984201D9144B186000EBB1
:104B600080002946124B03EB8000FEF703FDE26A4A
:104B7000104B1B68DB6A9A4213D901200E4B186058
:104B800038BD4FF0500372B683F31188BFF36F8FB7
:104B9000BFF34F8F62B6FEE729460848FEF7EAFCEE
:104BA000E5E70020ECE700BF04510020245100207D
:104BB000A051002000560020185100205C51002018
:104BC000034B1B680360034B1B684360704700BFC7
:104BD0001451002028510020F8B5C8B10C460546F4
:104BE00009B3FEF76FFD1D4B19686B68C81A226880
:104BF000B2F1FF3F2AD01A4E36682F68B74201D073
:104C00008B4228D9824219D80023236001241EE058
:104C10004FF0500372B683F31188BFF36F8FBFF369
:104C20004F8F62B6FEE74FF0500372B683F31188E0
:104C3000BFF36F8FBFF34F8F62B6FEE75B1A13446B
:104C400023602846FFF7BCFF002400E00024FEF7A5
:104C50005FFD2046F8BD0124F9E700BF2851002080
:104C600014510020014B01221A6070471851002096
:104C7000054B1B6833B1054B1B680BB10020704717
:104C8000022070470120704720510020045100206D
:104C900000283FD038B50446204B1B6883420AD019
:104CA0004FF0500372B683F31188BFF36F8FBFF3D9
:104CB0004F8F62B6FEE7036D53B94FF0500372B6E3
:104CC00083F31188BFF36F8FBFF34F8F62B6FEE798
:104CD000013B0365C16AC26C91421DD00BB100203B
:104CE00038BD051D2846FEF769FCE06CE062C0F1A6
:104CF0003803A3610A4B1B68984201D9084B18601E
:104D000000EB80002946074B03EB8000FEF732FCE6
:104D10000120E5E7002070470020E1E70056002071
:104D200024510020A0510020064B1A6813682BB9AB
:104D30000123036023B9D368186870470023F8E79C
:104D4000002070470457002008B54160006191427F
:104D50000CD8D21A83699A4201D3012008BD011DE3
:104D60000B4B1868FEF711FC0020F7E79A422CBFA6
:104D700000220122994238BF00220AB10120EDE74A
:104D8000011D044B1868FEF700FC0020E6E700BF99
:104D9000005700200457002030B583B0FEF792FC86
:104DA000114B1B681BB1FEF7B3FC03B030BD0F4DB8
:104DB0002846FEF7D1FB0E4C2046FEF7CDFB0D4BEF
:104DC0001D600D4B1C60002300930C4B0C4A1021FE
:104DD0000A20FEF7C4FF044B18600028E3D00949FD
:104DE000FFF70AFADFE700BFFC5600201C5700203F
:104DF00008570020045700200057002004560020C8
:104E0000545600206C56000810B588B0FFF7C4FF58
:104E1000134B1B68CBB100240594069407AA06A97E
:104E200005A8FEF78DFB059B0293069B01930223C9
:104E300000932346079A0B490B48FFF7DBFB0B4B0C
:104E4000186010B1012008B010BD4FF0500372B6C9
:104E500083F31188BFF36F8FBFF34F8F62B6FEE706
:104E6000FC5600207456000889510008F8560020AE
:104E7000B8B19C4603461948006868B300B585B0D0
:104E800000910192029305291EDCFFF7F1FE022832
:104E900012D000231A46694610480068FEF7BCFF8E
:104EA00017E04FF0500372B683F31188BFF36F8F92
:104EB000BFF34F8F62B6FEE70023069A69460748A4
:104EC0000068FEF7A9FF04E0002362466946FFF789
:104ED0006FF805B05DF804FB00207047FC56002019
:104EE00070B582B01C4B1B681A6872B3DB681E6811
:104EF000DC68251D2846FEF761FB236A204698479B
:104F000094F8283013F0040FECD0A36933449E4288
:104F100007D26360246129460F4B1868FEF735FB02
:104F2000E0E7002100910B4632462046FFF7A0FF44
:104F30000028D7D14FF0500372B683F31188BFF326
:104F40006F8FBFF34F8F62B6FEE7044A10680249C5
:104F50000860136002B070BD0457002000570020A5
:104F600038B50546FFF71EFC0446074B1B68834215
:104F700005D800232B60044B1C60204638BDFFF78A
:104F8000AFFF01232B60F6E7F456002070B582B026
:104F900006460D4618490968C968CC68201DFEF709
:104FA0000DFB94F828C01CF0040F08D12CF0010C64
:104FB00084F828C0236A2046984702B070BDA169D2
:104FC00033462A4631442046FFF7BEFE0028F1D082
:104FD000002100910B4632462046FFF749FF00288A
:104FE000E8D14FF0500372B683F31188BFF36F8F8F
:104FF000BFF34F8F62B6FEE70457002070B582B052
:1050000006460C46FFF7C6FB01A8FFF7A9FF019B68
:105010003BBB0546B04228BF002C19D024B1134A2F
:1050200012681268DAB901242246711B104B186805
:10503000FFF7F6F8FFF74AFCA8B94FF0E0234FF06E
:105040008052C3F8042DBFF34F8FBFF36F8F0AE078
:10505000FFF73CFC29463046FFF798FF03E01C466B
:10506000E2E7FFF733FC02B070BD00BF005700203D
:10507000FC56002010B588B002E0049B002B0FDA2C
:10508000002204A93F4B1868FFF700F8002877D0EA
:10509000049B002BF1DA07990698059B9847ECE7EB
:1050A000069C636913B1201DFEF788FA03A8FFF779
:1050B00057FF049B092BE3D8DFE803F00505053211
:1050C00039540505323994F8283043F0010384F847
:1050D0002830059BA169024619442046FFF734FE9B
:1050E0000028CDD0236A2046984794F8283013F042
:1050F000040FC5D0A269002100910B460598024417
:105100002046FFF7B5FE0028BAD14FF0500372B623
:1051100083F31188BFF36F8FBFF34F8F62B6FEE743
:1051200094F8283023F0010384F82830A8E794F895
:10513000283043F0010384F828300599A16131B18A
:105140000346024601442046FFF7FEFD98E74FF074
:10515000500372B683F31188BFF36F8FBFF34F8F85
:1051600062B6FEE794F8283013F0020F04D023F063
:10517000010384F8283083E72046FEF7BFFC7FE771
:1051800008B010BDFC56002000B583B001A8FFF7A1
:10519000CBFD0199FFF732FFFFF76CFFF6E7000048
:1051A00000B503781B021BB2427813430C4A01EB93
:1051B000410C02EB4C0E22F81C3083781B021BB210
:1051C00090F803C043EA0C03AEF8023003791B02E7
:1051D0001BB240790343AEF804305DF804FB00BF16
:1051E0003057002002440346934200D1704703F831
:1051F000011BF9E7144B1B68834270B5044622D0AB
:10520000436C53B10025636C5959B1B90435802DF5
:10521000F9D1616C204600F0B9F8A16B11B12046BC
:1052200000F0B4F8E16C11B1204600F0AFF8636B08
:105230004BB12046BDE8704018470E68204600F08C
:10524000A5F83146E1E770BD10000020014B186859
:10525000704700BF1000002070B50D4D0D4C641B51
:10526000A4100026A64209D10B4D0C4C00F0CAF93F
:10527000641BA4100026A64205D170BD55F8043B5E
:1052800098470136EEE755F8043B98470136F2E7B8
:105290008456000884560008845600088C5600087E
:1052A000704770470A44914200F1FF3300D17047C4
:1052B00010B511F8014B03F8014F9142F9D110BD1F
:1052C000024B13B1024800F005B87047000000001F
:1052D00045550008002301461A46184600F052B909
:1052E0002DE9F84306460820894600F03FF9244F8F
:1052F0008046304600F00AF9BB685D6825F003057A
:10530000A5F11104A4EB09044444B4FBF8F4013CF6
:1053100008FB04F4A04505DD304600F0FDF8002050
:10532000BDE8F8830021304600F0FCF8BB682B4450
:105330009842F1D16142304600F0F4F8013010D1CA
:105340000021304600F0EEF8BA68831A0F2BE3DD37
:105350000C490968401A0C4943F001030860536086
:10536000DAE7BB68084A2D1B45F001055D6013684C
:1053700030461B1B136000F0CFF80120D0E700BFC0
:10538000440100203C0100208C580020F8B5044660
:105390000F46002900F0B18000F0B8F857F8042C4F
:1053A000564D22F00100A7F1080303EB000CA96899
:1053B000DCF80460614526F0030602F001021BD10F
:1053C00006443AB957F8082C9B1A1644D3E902123E
:1053D000CA60916046F001025A60AB60484B1B689E
:1053E000B34204D8474B20461968FFF779FF20469F
:1053F000BDE8F84000F090B8CCF80460002A38D13D
:1054000057F8081C5B1A0844996805F10807B94267
:1054100031D0DF68CF60B9600CEB06014968C9077D
:105420000BD4DCF8081030443ABB374EB14224D1DB
:10543000C5E90433C3E90211012240F001015960BA
:105440001850002AD3D1B0F5007F1BD2C208012129
:1054500040098140686801320143696055F83200B3
:1054600005EBC2010839C3E9020145F83230C360D7
:10547000BDE70022D0E70122CEE7DCF80C60CE6069
:10548000B160DAE7B0F5206F4FEA502214D28209FA
:105490003832511C05EBC20655F831108E4225D129
:1054A0000120921000FA02F2686802436A60C3E9C0
:1054B0000216B360CB609AE7142A01D85B32E8E7A2
:1054C000542A02D8020B6E32E3E7B2F5AA7F02D863
:1054D000C20B7732DDE740F254518A429ABF820C08
:1054E0007C327E22D5E789688E4204D04A6822F059
:1054F00003028242F7D8CE68D9E7F8BD4401002004
:1055000040010020B45800204C0100200148FFF762
:10551000C7BE00BF845800200148FFF7C2BE00BFCD
:105520008458002038B5064D0023044608462B60F9
:10553000FBF754FB431C02D12B6803B1236038BD39
:105540008058002038B5074D074C641BA4101CB9C7
:10555000BDE8384000F05CB8013C55F8243098476D
:10556000F5E700BF8C56000890560008082808B5DB
:1055700006D0FFF76BFE162303604FF0FF3008BD27
:105580008020FCE72DE9F047DFF874A00646DAF842
:10559000000098460F469146FFF782FE164B1C68A6
:1055A0000CB9164C1C606568DAF800001F2D05DD8B
:1055B000FFF777FE4FF0FF30BDE8F0879EB104EBB8
:1055C00085010122C1F88890D4F88831AA4013439C
:1055D000C4F88831022EC1F8088102BFD4F88C319A
:1055E0001343C4F88C316B1C0235636044F825709A
:1055F000FFF757FE0020DFE788580020B85800204A
:1056000038010020F8B500BFF8BC08BC9E467047C2
:0C561000F8B500BFF8BC08BC9E4670470F
:10561C0064656661756C745461736B001C5600088C
:10562C00000000000000000000000000000000006E
:10563C000002000018000000000000000000000044
:10564C000000000001020304000000000000000044
:10565C00010203040607080949444C4500000000F8
:10566C00546D725100000000546D7220537663002B
:08567C00F4ABFF7F0100000008
:08568400C152000825020008D4
:04568C00010200080F
:105690000024F4000100000010000000AAAAAAAA39
:1056A0001800002000000000000000004857002003
:1056B000B057002018580020000000000000000033
:1056C00000000000000000000000000000000000DA
:1056D00000000000000000000000000000000000CA
:1056E00000000000000000000000000000000000BA
:1056F00000000000000000000000000000000000AA
:105700000000000000000000000000000000000099
:105710000000000000000000000000000000000089
:105720000000000000000000000000000000000079
:105730000000000000000000000000000000000069
:1057400001000000000000000E33CDAB34126DE606
:10575000ECDE05000B00000000000000000000006F
:105760000000000000000000000000000000000039
:105770000000000000000000000000000000000029
:105780000000000000000000000000000000000019
:105790000000000000000000000000000000000009
:1057A00000000000000000000000000000000000F9
:1057B00000000000000000000000000000000000E9
:1057C000000000000000000085580020FFFFFFFFE0
:1057D0000000020000000000000000004401002062
:1057E000440100204C0100204C0100205401002005
:1057F000540100205C0100205C01002064010020B5
:10580000640100206C0100206C0100207401002064
:10581000740100207C0100207C0100208401002014
:10582000840100208C0100208C01002094010020C4
:10583000940100209C0100209C010020A401002074
:10584000A4010020AC010020AC010020B401002024
:10585000B4010020BC010020BC010020C4010020D4
:10586000C4010020CC010020CC010020D401002084
:10587000D4010020DC010020DC010020E401002034
:10588000E4010020EC010020EC010020F4010020E4
:10589000F4010020FC010020FC0100200402002093
:1058A000040200200C0200200C0200201402002040
:1058B000140200201C0200201C02002024020020F0
:1058C000240200202C0200202C02002034020020A0
:1058D000340200203C0200203C0200204402002050
:1058E000440200204C0200204C0200205402002000
:1058F000540200205C0200205C02002064020020B0
:10590000640200206C0200206C020020740200205F
:10591000740200207C0200207C020020840200200F
:10592000840200208C0200208C02002094020020BF
:10593000940200209C0200209C020020A40200206F
:10594000A4020020AC020020AC020020B40200201F
:10595000B4020020BC020020BC020020C4020020CF
:10596000C4020020CC020020CC020020D40200207F
:10597000D4020020DC020020DC020020E40200202F
:10598000E4020020EC020020EC020020F4020020DF
:10599000F4020020FC020020FC020020040300208E
:1059A000040300200C0300200C030020140300203B
:1059B000140300201C0300201C03002024030020EB
:1059C000240300202C0300202C030020340300209B
:1059D000340300203C0300203C030020440300204B
:1059E000440300204C0300204C03002054030020FB
:1059F000540300205C0300205C03002064030020AB
:105A0000640300206C0300206C030020740300205A
:105A1000740300207C0300207C030020840300200A
:105A2000840300208C0300208C03002094030020BA
:105A3000940300209C0300209C030020A40300206A
:105A4000A4030020AC030020AC030020B40300201A
:105A5000B4030020BC030020BC030020C4030020CA
:105A6000C4030020CC030020CC030020D40300207A
:105A7000D4030020DC030020DC030020E40300202A
:105A8000E4030020EC030020EC030020F4030020DA
:105A9000F4030020FC030020FC0300200404002089
:105AA000040400200C0400200C0400201404002036
:105AB000140400201C0400201C04002024040020E6
:105AC000240400202C0400202C0400203404002096
:105AD000340400203C0400203C0400204404002046
